:100000000C9485000C94AD000C94AD000C94AD00E4
:100010000C94AD000C94AD000C94AD000C94AD00AC
:100020000C94AD000C94AD000C94AD000C94AD009C
:100030000C94AD000C94AD000C94AD000C94AD008C
:100040000C9450050C94AD000C941E050C94F8040F
:100050000C94AD000C94AD000C94AD000C94AD006C
:100060000C949A050C94AD00036EDB363D9A999979
:10007000993DABAAAA2A3E000000803F072C7AA532
:10008000BA6CC590DA3B9365FC8BBC53F810FD3C11
:100090005692834DBD879D3AB63DCBC9BF5BBE73BB
:1000A000DA0FC93F05A84CCDB2D44EB93836A902F3
:1000B0000C50B9918688083CA6AAAA2ABE00000066
:1000C000803F00000000250028002B0004040404E9
:1000D00004040404020202020202030303030303F2
:1000E00001020408102040800102040810200102CF
:1000F00004081020000000080002010000030407AB
:100100000000000000000000C80611241FBECFEF51
:10011000D8E0DEBFCDBF11E0A0E0B1E0E6EDFFE149
:1001200002C005900D92AA38B107D9F723E0AAE8DA
:10013000B1E001C01D92A335B207E1F710E0C5E8B8
:10014000D0E004C02197FE010E94CF0FC438D10730
:10015000C9F70E9401070C94E90F0C940000382F96
:100160002091A9029091A802213208F049C0809103
:1001700085028111FCCF42E04093850230938402D6
:100180003FEF309383021092820220938102A8E80D
:10019000B2E041E652E0FA013E2F341B321718F468
:1001A0003D913193F9CF1092600220916002990F36
:1001B000922B9093600290915F02913061F41092C3
:1001C0005F02909160029093BB009091BC0093FD00
:1001D000F8CF95EC01C095EE9093BC00909185020C
:1001E0009230E1F3909183029F3F79F080918302F6
:1001F000803241F080918302803331F084E005C089
:1002000081E003C082E001C083E010928702109277
:10021000A90210928602089590E0FC01EC50FF4F75
:100220002491FC01E052FF4F3491FC01E453FF4F55
:10023000E491EE23B1F1222339F1233091F038F427
:100240002130A9F0223001F584B58F7D12C027300E
:1002500091F02830A1F02430B9F4809180008F7D96
:1002600003C0809180008F77809380000DC084B59B
:100270008F7784BD09C08091B0008F7703C08091D3
:10028000B0008F7D8093B000F0E0EE0FFF1FEE53C3
:10029000FF4FA591B4918FB7F894EC913E2B3C930E
:1002A0008FBF0895CF92DF92EF92FF920F931F932B
:1002B000CF93DF936C017A018B01C0E0D0E0CE15C3
:1002C000DF0589F0D8016D918D01D601ED91FC918A
:1002D0000190F081E02DC6010995892B11F47E0172
:1002E00002C02196ECCFC701DF91CF911F910F91F2
:1002F000FF90EF90DF90CF900895FC01538D448DD7
:10030000252F30E0842F90E0821B930B541710F0C0
:10031000CF96089501970895FC01918D828D9817CD
:1003200061F0828DDF01A80FB11D5D968C91928DD9
:100330009F5F9F73928F90E008958FEF9FEF0895D6
:10034000FC01918D828D981731F0828DE80FF11D9F
:10035000858D90E008958FEF9FEF0895FC01918DBA
:10036000228D892F90E0805C9F4F821B91098F73B3
:10037000992708958AEA92E00E94AE0121E0892B34
:1003800009F420E0822F0895FC01848DDF01A80F7D
:10039000B11DA35ABF4F2C91848D90E001968F73AD
:1003A0009927848FA689B7892C93A089B1898C91CC
:1003B00080648C93938D848D981306C00288F38992
:1003C000E02D80818F7D80830895EF92FF920F93BF
:1003D0001F93CF93DF93EC0181E0888F9B8D8C8DF1
:1003E000981305C0E889F989808185FD24C0F62E1F
:1003F0000B8D10E00F5F1F4F0F731127E02E8C8DB8
:10040000E8120CC00FB607FCFACFE889F9898081A1
:1004100085FFF5CFCE010E94C401F1CF8B8DFE0187
:10042000E80FF11DE35AFF4FF0820B8FEA89FB8939
:100430008081806207C0EE89FF896083E889F9893D
:1004400080818064808381E090E0DF91CF911F9173
:100450000F91FF90EF900895CF93DF93EC01888D7B
:100460008823C9F0EA89FB89808185FD05C0A889B8
:10047000B9898C9186FD0FC00FB607FCF5CF80813E
:1004800085FFF2CFA889B9898C9185FFEDCFCE0188
:100490000E94C401E7CFDF91CF91089580E090E002
:1004A000892B29F00E94BA0181110C940000089553
:1004B0003FB7F8948091F8019091F901A091FA0169
:1004C000B091FB0126B5A89B05C02F3F19F00196FE
:1004D000A11DB11D3FBFBA2FA92F982F8827820FCA
:1004E000911DA11DB11DBC01CD0142E0660F771F1A
:1004F000881F991F4A95D1F708958F929F92AF92C6
:10050000BF92CF92DF92EF92FF926B017C010E942B
:1005100058024B015C01C114D104E104F104F1F073
:100520000E945802DC01CB0188199909AA09BB096C
:10053000883E9340A105B10570F321E0C21AD108AD
:10054000E108F10888EE880E83E0981EA11CB11C1A
:10055000C114D104E104F10419F7DDCFFF90EF904D
:10056000DF90CF90BF90AF909F908F90089585EDD2
:100570008093BC008091BC0084FDFCCF109285026A
:1005800008954091CE01262F30E0240F311D2132F5
:100590003105DCF4209185022430C9F4FC0180E0AF
:1005A00090E0861758F43091CE012191DC01A455DA
:1005B000BE4FA30FB11D2C930196F3CF8091CE01B6
:1005C000680F6093CE0180E0089581E0089582E095
:1005D00008950895E091FD018091FC01E81730F441
:1005E000F0E0E457FE4F808190E008958FEF9FEF99
:1005F00008959091FD018091FC01981750F4E92F26
:10060000F0E0E457FE4F208130E09F5F9093FD01C2
:1006100002C02FEF3FEFC90108958091FC0190E0E7
:100620002091FD01821B91090895CF92DF92EF92F4
:10063000FF920F931F93CF93DF937C01262F972F69
:100640008A0180918602882391F0C62FD72F6E01F0
:10065000C40ED51ECC15DD0571F06991D701ED9161
:10066000FC910190F081E02DC7010995F3CF642F33
:10067000822F0E94C102C801DF91CF911F910F917B
:10068000FF90EF90DF90CF900895CF93DF931F926C
:10069000CDB7DEB76983209186022223D1F0209165
:1006A000A902203240F021E030E0FC0133832283B4
:1006B00080E090E015C080918702E82FF0E0E857D5
:1006C000FD4F998190838F5F809387028093A90269
:1006D00005C061E0CE0101960E94C10281E090E078
:1006E0000F90DF91CF910895089580E090E00895F4
:1006F000CF93DF931F92CDB7DEB791E09093860240
:100700008093A802109287021092A90287E493E0D6
:1007100049830E9445034981642F87E493E00E9446
:10072000450381E00F90DF91CF910C94AF000097CB
:1007300069F0FC0101900020E9F73197AF01481BF7
:10074000590BBC018AEA92E00C94520180E090E0DF
:1007500008958F929F92AF92BF920F931F93CF9362
:10076000DF93CDB7DEB7A1970FB6F894DEBF0FBE0B
:10077000CDBF19A2423008F44AE08E010F5D1F4F31
:10078000842E912CA12CB12CA50194010E948E0FD6
:10079000E62FB901CA0101501109EA3014F4E05DF5
:1007A00001C0E95CD801EC93232B242B252B61F7A6
:1007B000C8010E949703A1960FB6F894DEBF0FBE42
:1007C000CDBFDF91CF911F910F91BF90AF909F90C0
:1007D0008F900895CF93DF930E949703EC0184E2FA
:1007E00091E00E9497038C0F9D1FDF91CF91089598
:1007F000CF93DF93BC01990F880B990B40E10E94C6
:10080000A903EC0184E291E00E9497038C0F9D1FE5
:10081000DF91CF910895FF920F931F93CF93DF93B2
:10082000CDB7DEB72E970FB6F894DEBF0FBECDBFA3
:1008300081E08093860288E68093A8021092870266
:100840001092A9026BE387E493E00E94450381E0E4
:100850000E94AF00809185028111FCCF81E08093DE
:100860008502809384029FEF90938302109282020C
:100870009DE0909381028093600280916002806D80
:100880008093600280915F02813061F410925F0278
:10089000809160028093BB008091BC0083FDF8CF03
:1008A00085EC01C085EE8093BC008091850281308B
:1008B000E1F3809182028E3018F41091820201C01F
:1008C0001EE0A1E6B2E02CE831E0F9018E2F821B98
:1008D000811718F48D918193F9CF1092FD01109337
:1008E000FC0100E08091FD01181781F0FF24F394D2
:1008F000F00E87E493E00E94F902E1E0F0E0EC0FF3
:10090000FD1FE00FF11D80830F2DECCF898190E05A
:10091000982F88272A81822B919581959109092EFC
:10092000000CAA0BBB0B8093490290934A02A09340
:100930004B02B0934C028B8190E0982F88272C813A
:10094000822B919581959109092E000CAA0BBB0B66
:100950008093410290934202A0934302B0934402D9
:100960008D8190E0982F88272E81822B092E000CF4
:10097000AA0BBB0B8093390290933A02A0933B02DF
:10098000B0933C028F8190E0982F88272885822B96
:1009900090938B0180938A01898590E0982F882716
:1009A0002A85822B90935E0280935D028B8590E076
:1009B000982F88272C85822B90935802809357027A
:1009C0008D8590E0982F88272E85822B9093520258
:1009D000809351022E960FB6F894DEBF0FBECDBFA6
:1009E000DF91CF911F910F91FF9008950E94E40F26
:1009F0001F920F920FB60F9211242F933F934F9394
:100A00005F936F937F938F939F93AF93BF93EF9376
:100A1000FF938AEA92E00E94C401FF91EF91BF9197
:100A2000AF919F918F917F916F915F914F913F9186
:100A30002F910F900FBE0F901F9018951F920F923D
:100A40000FB60F9211242F938F939F93EF93FF93E1
:100A5000E091BA02F091BB028081E091C002F09176
:100A6000C10282FD12C090818091C3028F5F8F739B
:100A70002091C402821751F0E091C302F0E0E655E4
:100A8000FD4F958F8093C30201C08081FF91EF914C
:100A90009F918F912F910F900FBE0F901F901895DF
:100AA0001F920F920FB60F9211242F933F938F93A3
:100AB0009F93AF93BF938091F4019091F501A09122
:100AC000F601B091F7013091F30123E0230F2D37A8
:100AD00020F40196A11DB11D05C026E8230F029642
:100AE000A11DB11D2093F3018093F4019093F501B2
:100AF000A093F601B093F7018091F8019091F9016C
:100B0000A091FA01B091FB010196A11DB11D809346
:100B1000F8019093F901A093FA01B093FB01BF9102
:100B2000AF919F918F913F912F910F900FBE0F909A
:100B30001F9018951F920F920FB60F9211242F93AA
:100B40003F934F935F936F937F938F939F93AF9355
:100B5000BF93EF93FF938091B900887F803609F4AB
:100B60009CC068F5883209F45BC090F4803109F4C8
:100B700054C038F4882309F4F6C0883009F44DC015
:100B8000F6C0883109F44CC0803209F45DC0EFC072
:100B9000803409F468C048F4803309F455C08833C0
:100BA00009F0E5C080938302D8C0803509F44FC0B6
:100BB000883509F45DC0883409F0D9C0D6C08839B9
:100BC00009F4C7C0A8F4883709F467C038F4883638
:100BD00009F463C0803709F460C0C9C0883809F4DB
:100BE000B8C0803909F45FC0803809F0C0C05BC06C
:100BF000803B09F486C038F4803A09F466C0883A2C
:100C000009F47FC0B4C0803C09F4A7C0883C09F453
:100C1000A4C0883B09F48AC0AAC08091600210C0B9
:100C20009091820280918102981770F5E091820282
:100C300081E08E0F80938202F0E0EF59FD4F8081BA
:100C40008093BB0085EC86C0809383028EC0E091C8
:100C5000820281E08E0F809382028091BB00F0E0DF
:100C6000EF59FD4F808390918202809181026EC086
:100C7000E091820281E08E0F809382028091BB001E
:100C8000F0E0EF59FD4F80838091840281116DC0A7
:100C900081E080935F0284EA61C083E080938502F3
:100CA0001092F201CFCF8091F201803208F051C052
:100CB000E091F20181E08E0F8093F2018091BB0000
:100CC000F0E0EE52FE4F8083BDCF85EC8093BC00F8
:100CD000109285028091F201803230F4E091F201AD
:100CE000F0E0EE52FE4F10826091F20170E0E09170
:100CF000D001F091D10182ED91E009951092F201BD
:100D000036C084E0809385021092CF011092CE010C
:100D1000E091CC01F091CD0109958091CE01811136
:100D200005C081E08093CE011092AC01E091CF012B
:100D300081E08E0F8093CF01F0E0E455FE4F80817B
:100D40008093BB009091CF018091CE01981708F459
:100D500079CF85E88093BC000AC085EC8093BC0005
:100D60001092850204C0109283020E94B702FF9184
:100D7000EF91BF91AF919F918F917F916F915F9113
:100D80004F913F912F910F900FBE0F901F9018958C
:100D9000EAEAF2E01382128288EE93E0A0E0B0E08B
:100DA00084839583A683B78324E031E03183208355
:100DB00025EC30E03587248724EC30E03787268720
:100DC00020EC30E0318B208B21EC30E0338B228B18
:100DD00022EC30E0358B248B26EC30E0378B268BF1
:100DE000118E128E138E148EE7E4F3E013821282BA
:100DF00084839583A683B78386E191E09183808382
:100E00000895CF93DF93CDB7DEB760970FB6F89410
:100E1000DEBF0FBECDBF789484B5826084BD84B53B
:100E2000816084BD85B5826085BD85B5816085BDE5
:100E300080916E00816080936E001092810080919D
:100E40008100826080938100809181008160809325
:100E50008100809180008160809380008091B1004A
:100E600084608093B1008091B00081608093B00075
:100E700080917A00846080937A0080917A00826009
:100E800080937A0080917A00816080937A008091CB
:100E90007A00806880937A001092C1001092FD0160
:100EA0001092FC01109287021092A9021092850202
:100EB00081E08093840210925F0282E10E940C0123
:100EC00083E10E940C018091B9008E7F8093B9006C
:100ED0008091B9008D7F8093B90088E48093B80039
:100EE00085E48093BC00E091BA02F091BB0282E0FD
:100EF0008083E091B602F091B7021082E091B802CF
:100F0000F091B90280E180831092C202E091BE02AA
:100F1000F091BF0286E08083E091BC02F091BD02B7
:100F2000808180618083E091BC02F091BD0280816C
:100F300088608083E091BC02F091BD02808180686E
:100F40008083E091BC02F091BD0280818F7D80831F
:100F500087E291E00E94EA0388E491E00E9497030F
:100F600040E160E170E080E090E00E94A9038BE541
:100F700091E00E94970388E090E00E94F80368E8FF
:100F800073E180E090E00E947D0284E690E090931F
:100F90000B0280930A0288E090E090930302809312
:100FA000020280E190E0909309028093080280E0C1
:100FB00090E0A3E8B2E48093040290930502A0932A
:100FC0000602B093070280E090E0A0E8B5E48093C9
:100FD000FE019093FF01A0930002B093010280E70D
:100FE00091E00E94970380910802909109020E946B
:100FF000F80380E791E00E949703809108029091A6
:1010000009020E94F803409102026BE188E60E9407
:101010007803409108026CE188E60E94780342E080
:1010200067E388E60E94780341E06AE08CE00E9472
:10103000780380E891E00E94EA0360910A027091CF
:101040000B02072E000C880B990B0E94500D20916B
:1010500004023091050240910602509107020E945D
:101060005B0E9B01AC0160E070E080E89FE30E94B2
:10107000A60C60932D0270932E0280932F02909302
:1010800030022BE43AEF4EE85CE30E945B0E609383
:101090002502709326028093270290932802212C28
:1010A000312C0DE710E0C101B8010E947A0F892BA5
:1010B00021F488E891E00E9497030E940B0420919C
:1010C0005D0230915E02C901330FAA0BBB0B409148
:1010D000590250915A0260915B0270915C029A0130
:1010E000AB01280F391F4A1F5B1F20935902309311
:1010F0005A0240935B0250935C024090570250901A
:101100005802052C000C66087708809153029091D4
:101110005402A0915502B0915602480E591E6A1E03
:101120007B1E40925302509254026092550270927C
:1011300056028090510290905202092C000CAA088D
:10114000BB0880914D0290914E02A0914F02B09148
:101150005002880E991EAA1EBB1E80924D029092CC
:101160004E02A0924F02B0925002C0904502D09021
:101170004602E0904702F090480280914902909127
:101180004A02A0914B02B0914C02C80ED91EEA1E31
:10119000FB1EC982DA82EB82FC82C0924502D092A9
:1011A0004602E0924702F092480280913D029091FF
:1011B0003E02A0913F02B09140028D839E83AF8397
:1011C000B8878091410290914202A0914302B09170
:1011D0004402CD80DE80EF80F884C80ED91EEA1E5E
:1011E000FB1ECD82DE82EF82F886C0923D02D09255
:1011F0003E02E0923F02F0924002C0903502D09051
:101200003602E0903702F0903802809139029091D6
:101210003A02A0913B02B0913C02C80ED91EEA1ED0
:10122000FB1EC0923502D0923602E0923702F09255
:10123000380263E070E080E090E02D873E874F87C2
:10124000588B0E947D028FEF281A380A2D853E8523
:101250004F85588990ED291697E0390609F023CF7C
:10126000CA01B9010E94500D20E030E04AEF54E479
:101270000E94A60C0E94180D6093590270935A02A6
:1012800080935B0290935C02C301B2010E94500DF7
:1012900020E030E04AEF54E40E94A60C0E94180DB2
:1012A00060935302709354028093550290935602B8
:1012B000C501B4010E94500D20E030E04AEF54E433
:1012C0000E94A60C0E94180D60934D0270934E026E
:1012D00080934F029093500269817A818B819C8127
:1012E0000E94500D20E030E04AEF54E40E94A60C2A
:1012F0000E94180D60934502709346028093470246
:10130000909348026D817E818F8198850E94500D57
:1013100020E030E04AEF54E40E94A60C0E94180D31
:1013200060933D0270933E0280933F02909340028F
:10133000C701B6010E94500D20E030E04AEF54E4AE
:101340000E94A60C0E94180D60933502709336021D
:1013500080933702909338020E94580260930C02E7
:1013600070930D0280930E0290930F020E940B0463
:1013700020905D0230905E028091590290915A0255
:10138000281A390A30925E0220925D02609157025B
:10139000709158028091530290915402681B790B0E
:1013A0007093580260935702E0905102F0905202FD
:1013B00080914D0290914E02E81AF90AF092520281
:1013C000E09251020091490210914A0220914B0291
:1013D00030914C028091450290914602A0914702C3
:1013E000B091480228013901481A590A6A0A7B0A51
:1013F00049825A826B827C824092490250924A0210
:1014000060924B0270924C02009141021091420294
:10141000209143023091440280913D0290913E021E
:10142000A0913F02B091400248015901881A990ADF
:10143000AA0ABB0A8092410290924202A092430201
:10144000B09244020091390210913A0220913B027D
:1014500030913C028091350290913602A091370282
:10146000B091380228013901481A590A6A0A7B0AE0
:101470004D825E826F8278864092390250923A02A3
:1014800060923B0270923C0240902D0250902E02DE
:1014900060902F0270903002072E000C880B990B81
:1014A0000E94500DA30192010E945B0E209129021F
:1014B00030912A0240912B0250912C020E941A0C6A
:1014C00069877A878B879C87B701FF0C880B990BFC
:1014D0000E94500D20912502309126024091270252
:1014E000509128020E945B0E0E94C80E6B017C0185
:1014F000B101330C880B990B0E94500DA30192018E
:101500000E945B0E209131023091320240913302F1
:10151000509134020E941A0C2B013C01A701960144
:1015200069857A858B859C850E945B0E9B01AC0149
:10153000C301B2010E941A0C2B013C01A7019601C4
:101540000E945B0E9B01AC0169857A858B859C8529
:101550000E94190C69877A878B879C8729813A8139
:101560004B815C81CA01B9010E946A0F6B017C0149
:10157000A5019401C501B4010E946A0FC60ED71ED1
:10158000E81EF91E2D813E814F815885CA01B9019F
:101590000E946A0F6C0D7D1D8E1D9F1D0E94500DB7
:1015A0000E94D60E0E94180D6093210270932202B1
:1015B00080932302909324020E94500D6B017C01C2
:1015C000C501B4010E94500DA70196010E94A60C0E
:1015D0000E94860C4B015C0169817A818B819C8120
:1015E0000E94500DA70196010E94A60C0E94860C35
:1015F0006B017C012BE13FE245E652E4C501B401F9
:101600000E945B0E2DEC3CEC4CE45FE30E941A0C54
:101610004B015C0160931D0270931E0280931F02B8
:10162000909320022BE13FE245E652ECC701B60160
:101630000E945B0E2DEC3CEC4CE45EE30E941A0C25
:101640006B017C016093190270931A0280931B0254
:1016500090931C0280911802882309F443C029EC5E
:1016600035EE4FE75FE3C301B2010E945B0E2B0131
:101670003C0127E137EB41ED59E3C501B4010E947C
:101680005B0E9B01AC01C301B2010E941A0C609376
:10169000310270933202809333029093340229EC2A
:1016A00035EE4FE75FE369857A858B859C850E94DF
:1016B0005B0E4B015C0127E137EB41ED59E3C701BC
:1016C000B6010E945B0E9B01AC01C501B4010E94F2
:1016D0001A0C6093290270932A0280932B02909334
:1016E0002C0212C08092310290923202A0923302F8
:1016F000B0923402C0922902D0922A02E0922B02C8
:10170000F0922C021092180226E636E646E65FE3D7
:101710006091140270911502809116029091170247
:101720000E945B0E6B017C012DEC3CEC4CEC5DE30C
:1017300060913102709132028091330290913402B3
:101740000E945B0E9B01AC01C701B6010E941A0CFE
:1017500060931402709315028093160290931702FF
:1017600026E636E646E65FE36091100270911102CC
:1017700080911202909113020E945B0E6B017C011A
:101780002DEC3CEC4CEC5DE36091290270912A0257
:1017900080912B0290912C020E945B0E9B01AC0168
:1017A000C701B6010E941A0C6093100270931102D7
:1017B000809312029093130286E291E00E94EA0362
:1017C0000E94580200910C0210910D0220910E020D
:1017D00030910F02601B710B820B930B0E944E0D18
:1017E0006B017C0180910A0290910B02BC01990F60
:1017F000880B990B0E94500D9B01AC0160E074E2D4
:1018000084E799E40E94A60C9B01AC01C701B601D4
:101810000E94A10C87FDD4CF0E94580260930C0255
:1018200070930D0280930E0290930F020E944E025D
:101830009DCD5058BB27AA270E94310C0C94210E35
:101840000E94130E38F00E941A0E20F039F49F3FC8
:1018500019F426F40C94D50D0EF4E095E7FB0C94E6
:10186000CF0DE92F0E94320E58F3BA1762077307A3
:101870008407950720F079F4A6F50C94540E0EF425
:10188000E0950B2EBA2FA02D0B01B90190010C0190
:10189000CA01A0011124FF27591B99F0593F50F4A8
:1018A000503E68F11A16F040A22F232F342F442700
:1018B000585FF3CF469537952795A795F0405395F8
:1018C000C9F77EF41F16BA0B620B730B840BBAF0C8
:1018D0009150A1F0FF0FBB1F661F771F881FC2F733
:1018E0000EC0BA0F621F731F841F48F48795779547
:1018F0006795B795F7959E3F08F0B0CF9395880F01
:1019000008F09927EE0F9795879508959F939F77F5
:10191000EEE389379E0728F4E8E6F0E00E94FF0D29
:101920000CC00E948B0D9058A2EA2AED3FE049ECD2
:101930005FE30E94310C0E94210E0F9007FC90582B
:1019400008950E94AB0D08F481E008950E94BA0C3E
:101950000C94210E0E941A0E58F00E94130E40F0B3
:1019600029F45F3F29F00C94CF0D51110C94550EC2
:101970000C94D50D0E94320E68F39923B1F35523D0
:1019800091F3951B550BBB27AA2762177307840792
:1019900038F09F5F5F4F220F331F441FAA1FA9F328
:1019A00035D00E2E3AF0E0E832D091505040E69516
:1019B000001CCAF72BD0FE2F29D0660F771F881F77
:1019C000BB1F261737074807AB07B0E809F0BB0B6A
:1019D000802DBF01FF2793585F4F3AF09E3F51057E
:1019E00078F00C94CF0D0C94550E5F3FE4F3983EC5
:1019F000D4F3869577956795B795F7959F5FC9F767
:101A0000880F911D9695879597F90895E1E0660FE7
:101A1000771F881FBB1F621773078407BA0720F060
:101A2000621B730B840BBA0BEE1F88F7E0950895C9
:101A30000E941F0D6894B1110C94550E08950E94D8
:101A40003A0E88F09F5798F0B92F9927B751B0F008
:101A5000E1F0660F771F881F991F1AF0BA95C9F732
:101A600014C0B13091F00E94540EB1E008950C946E
:101A7000540E672F782F8827B85F39F0B93FCCF321
:101A8000869577956795B395D9F73EF490958095AF
:101A9000709561957F4F8F4F9F4F0895E89409C0CF
:101AA00097FB3EF490958095709561957F4F8F4F91
:101AB0009F4F9923A9F0F92F96E9BB279395F695A7
:101AC000879577956795B795F111F8CFFAF4BB0F25
:101AD00011F460FF1BC06F5F7F4F8F4F9F4F16C089
:101AE000882311F096E911C0772321F09EE8872F13
:101AF000762F05C0662371F096E8862F70E060E0CF
:101B00002AF09A95660F771F881FDAF7880F969547
:101B1000879597F90895DF93CF931F930F938B01C8
:101B2000EC01ECE7F0E00E94D80D0E94210E980134
:101B3000AE018B01EC0160E070E080E89FE30E9461
:101B4000190C0E94D60E9801AE010F911F91CF91F2
:101B5000DF910C946E0E990F0008550FAA0BE0E868
:101B6000FEEF16161706E807F907C0F0121613065F
:101B7000E407F50798F0621B730B840B950B39F49F
:101B80000A2661F0232B242B252B21F408950A2605
:101B900009F4A140A6958FEF811D811D089597F945
:101BA0009F6780E870E060E008959FEF80EC089503
:101BB000DF93CF931F930F93FF92EF92DF927B01FE
:101BC0008C01689406C0DA2EEF010E946E0EFE01B1
:101BD000E894A5912591359145915591A6F3EF0192
:101BE0000E94310CFE019701A801DA9469F7DF9099
:101BF000EF90FF900F911F91CF91DF9108959F93E8
:101C00008F937F936F93FF93EF939B01AC010E949F
:101C10005B0EEF91FF910E94D80D2F913F914F9154
:101C20005F910C945B0E00240A9416161706180692
:101C30000906089500240A941216130614060506D0
:101C40000895092E0394000C11F4882352F0BB0F61
:101C500040F4BF2B11F460FF04C06F5F7F4F8F4FC4
:101C60009F4F089557FD9058440F551F59F05F3FFF
:101C700071F04795880F97FB991F61F09F3F79F0AE
:101C800087950895121613061406551FF2CF469530
:101C9000F1DF08C0161617061806991FF1CF8695B2
:101CA0007105610508940895E894BB276627772796
:101CB000CB0197F908950E946E0E0C94210E0E949C
:101CC000130E38F00E941A0E20F0952311F00C9498
:101CD000CF0D0C94D50D11240C94550E0E94320E8C
:101CE00070F3959FC1F3950F50E0551F629FF0016F
:101CF000729FBB27F00DB11D639FAA27F00DB11D88
:101D0000AA1F649F6627B00DA11D661F829F222710
:101D1000B00DA11D621F739FB00DA11D621F839F97
:101D2000A00D611D221F749F3327A00D611D231F6D
:101D3000849F600D211D822F762F6A2F11249F57BB
:101D400050409AF0F1F088234AF0EE0FFF1FBB1FBE
:101D5000661F771F881F91505040A9F79E3F51057D
:101D600080F00C94CF0D0C94550E5F3FE4F3983E39
:101D7000D4F3869577956795B795F795E7959F5F27
:101D8000C1F7FE2B880F911D9695879597F90895B9
:101D90009F930E942D0F0F9007FCEE5F0C94560F3F
:101DA00019F416F40C94D50D0C94160F0E943A0EEB
:101DB000B8F39923C9F3B6F39F57550B87FF0E94D9
:101DC000240F0024A0E640EA90018058569597958C
:101DD00028F4805C660F771F881F20F026173707CE
:101DE000480730F4621B730B840B202931294A2BDE
:101DF000A69517940794202531254A2758F7660F92
:101E0000771F881F20F026173707480730F4620B2A
:101E1000730B840B200D311D411DA09581F7B90175
:101E2000842F9158880F9695879508959F3F31F09C
:101E3000915020F4879577956795B795880F911DF8
:101E40009695879597F9089591505040660F771FA2
:101E5000881FD2F708950C94D50D0E943A0ED8F33E
:101E6000E894E0E0BB279F57F0F02AED3FE049EC13
:101E700006C0EE0FBB0F661F771F881F28F0B23A0F
:101E800062077307840728F0B25A620B730B840B46
:101E9000E3959A9572F7803830F49A95BB0F661FD8
:101EA000771F881FD2F790480C94180FEF93E0FF2C
:101EB00007C0A2EA2AED3FE049EC5FEB0E94310C3B
:101EC0000E94210E0F90039401FC9058E4EAF0E088
:101ED0000C94FF0DDB018F939F930E94B00FBF9175
:101EE000AF91A29F800D911DA39F900DB29F900D69
:101EF0001124089597FB072E16F4009407D077FD60
:101F000009D00E94BB0F07FC05D03EF49095819547
:101F10009F4F0895709561957F4F0895A1E21A2E05
:101F2000AA1BBB1BFD010DC0AA1FBB1FEE1FFF1F7D
:101F3000A217B307E407F50720F0A21BB30BE40BCD
:101F4000F50B661F771F881F991F1A9469F7609514
:101F50007095809590959B01AC01BD01CF010895CE
:101F60000E94D50FA59F900DB49F900DA49F800D4A
:101F7000911D11240895AA1BBB1B51E107C0AA1F84
:101F8000BB1FA617B70710F0A61BB70B881F991F1A
:101F90005A95A9F780959095BC01CD010895EE0F53
:101FA000FF1F0590F491E02D0994A29FB001B39F0B
:101FB000C001A39F700D811D1124911DB29F700D52
:101FC000811D1124911D089581E090E0F8940C94F6
:061FD000E90FF894FFCFB9
:101FD60000000000E50152017D012C02AE018C01DA
:101FE600A00100000000450315037503E9020D0377
:101FF600F902EA020D0A004D505520697320636FFD
:102006006E6669677572656420617320666F6C6CB5
:102016006F77696E672C20006163635F66756C6C11
:102026005F7363616C65203A202000206779726FC8
:102036005F66756C6C5F7363616C65203A20200087
:10204600416363652053657474696E67203A2000A6
:0A20560073746172746564002E005B
:00000001FF
